:020000007F2857
:080008006B2882070034453427
:1000100001345434FF34203482070034493402342C
:10002000413401344E3403344D34FF3420348207DC
:1000300000345334043455340234523406345734C3
:100040000134443405344B340334473407344F34DB
:10005000FF342034820700344834083456340434E2
:10006000463402344C34063450340E344A340134AD
:10007000423409345834053443340D34593403348C
:100080005A340B345134FF34203482070034353471
:1000900010343434183433341C3432341E34313494
:1000A0001F343034013436340334373407343834B1
:1000B0000F34393411343D34FF342034820728346E
:1000C00023340C343F3421342D342A342E34333449
:1000D0002C34FF342034A200030EA300920A930AAA
:1000E000950A0A301502031C77289501940A64309A
:1000F00081000B11230E8300A20E220E0900850140
:1001000086018316FF3085000030860001148110BF
:100110000115811181128312643081008B168B17B7
:10012000A101A001A0140F309C009D0026309E006C
:10013000FF3096009700980099009A009B0092016A
:10014000930191019001940195019F0108308E0067
:10015000A521C621552355238518AF28B32806228B
:1001600064008518B028051EC9282018AB28201463
:10017000A0109201A0221D081302031CAA28DF2050
:10018000EC20051DAC281E081302031CAC282323F9
:10019000AC28A01CD428C8301302031CAB28930140
:1001A000EC2008308E00AC28A0142010930194227B
:1001B000A10A0F302102031862223022AA28083037
:1001C0000E02031CEA288E0191080319E8288022F8
:1001D000940195018E0A08002030A4009108031DA7
:1001E000F42855235523080001309102031DFA28F5
:1001F00021211A2902309102031D002937211A29D1
:1002000004309102031D06294D211A29083091025C
:10021000031D0C2963211A2910309102031D122994
:1002200079211A2920309102031D18298F211A29BA
:100230002A30A4009101900123232408B900082347
:1002400008000301A5000520A600FF302602031DBB
:100250002B292A30352926081002031932292508AE
:10026000023E22292508013E0520A40008000301C2
:10027000A5000C20A600FF302602031D41292A30CC
:100280004B2926081002031948292508023E38295F
:100290002508013E0C20A40008000301A50017203A
:1002A000A600FF302602031D57292A30612926089F
:1002B000100203195E292508023E4E292508013E39
:1002C0001720A40008000301A5002A20A600FF3083
:1002D0002602031D6D292A307729260810020319EA
:1002E00074292508023E64292508013E2A20A4001D
:1002F00008000301A5004520A600FF302602031DCB
:1003000083292A308D292608100203198A292508F5
:10031000023E7A292508013E4520A4000800030179
:10032000A5005E20A600FF302602031D99292A3071
:10033000A329260810020319A0292508023E9029A6
:100340002508013E5E20A400080038308600861192
:100350004B233830860086114B23383086008611B7
:100360004B232830860086114B2328308F00312301
:100370004B2306308F0031234B230C308F00312369
:100380004B2301308F0031234B2308002030AA007B
:100390004330AB005730AC002030AD004430AE00ED
:1003A0006530AF006330B0006F30B1006430B20030
:1003B0006530B3007230B4002030B5002030B60094
:1003C0002030B7007E30B8002030B9000823080084
:1003D0002908A400A5016430A4020318F129A40788
:1003E000F329A50AEC2925083038A6000A30A50112
:1003F000A4020318FD29A407FF29A50AF829250846
:100400003038A70024083038A80008002030AA009F
:10041000AB001F08A900E82126080F39031D122A86
:100420002030A6002608AC002708AD002808AE0042
:100430002030AF006330B0006830B1006130B200EE
:100440007230B3002F30B4006D30B5006930B600A3
:100450006E30B7002030B8002030B9000823080003
:100460001118382A11141C08120203181014612ADA
:100470009118402A91141C08120203189014612A42
:100480001119482A11151C08120203181015612AA7
:100490009119502A91151C08120203189015612A0F
:1004A000111A582A11161C08120203181016612A74
:1004B000911A602A91161C08120203189016612ADC
:1004C000111708001808A7000230A800EA22270820
:1004D0009C001B08A7000230A800EA2227089D0004
:1004E0001B08A7000530A800EA2227089E00A101EA
:1004F000FF3096009700980099009A009B00080032
:100500000A30A7000830A800EA223C30A800EA22FE
:100510001408A800F7222708270714020318912AB5
:10052000A60A26089F00080003301202031C9F2A17
:1005300012081802031C9F2A12089800AC22080017
:1005400003301302031CAB2A13081B02031CAB2A43
:1005500013089B00CB220800170818020318B62ABC
:100560001708A60018089700260898001608170212
:100570000318CA2A1608A60017089600260897002E
:10058000170818020318CA2A1708A60018089700A7
:100590002608980008001A081B020318D52A1A0812
:1005A000A6001B089A0026089B0019081A020318C7
:1005B000E92A1908A6001A08990026089A001A08BC
:1005C0001B020318E92A1A08A6001B089A0026082D
:1005D0009B000800A6012708A500A80364002508C1
:1005E000A707031CF42AA60AA80BEE2A0800A501F7
:1005F0006400A50A2808A7020318F82A0130A602F9
:100600000318F82A2808A707A5032508A60008004C
:1006100080308F0031230830A5002A308400000884
:100620008F003E23840AA50B0F2BC0308F0031238F
:100630000830A5003230840000088F003E23840A71
:10064000A50B1C2B08000F30A5002A308400840A5B
:10065000000884038000840AA50B272B203080002B
:1006600008000F08F0390838860086115F230F0E46
:10067000F0390838860086115F2308000F08F0392A
:100680000A38860086115F230F0EF0390A3886007B
:1006900086115F2308007D308C0064308D0064007B
:1006A0008D0B4F2B8C0B4D2B080030308C001930EC
:1006B0008D0064008D0B592B8C0B572B08003230AA
:0C06C0008C00640000008C0B612B080013
:02400E00F93F78
:00000001FF
